:02000000442892
:0E0006008312031324088A00230882000800D6
:100014000E3083120313FD00FD0B0E2800000800B0
:10002400C330831203139F05C0309F002508F000DE
:10003400F00D7010F00D701070089F042009F0008E
:10004400700883169F059F1783121F140A209F149C
:100054009F1C2E2800002A281F101E08F100F00102
:0C00640083161E08F0040030F1040800B0
:1000700003208A110A128000840AA30A0319A40A21
:08008000F003031D38280800FD
:100088006C200430831603178800890183128713B4
:100098008813FF3083160313850087018801023017
:1000A8008312A500122070088312A1007108A20013
:1000B800700887007108F200F3017208880053285D
:0200C8006428AA
:1000D80020308400013083120313F0006A30A3003B
:0800E8000030A40038200800DC
:0200D4003034C6
:04400E00F22F000786
:00000001FF
